:100000000C944A000C9467000C9467000C946700F1
:100010000C9467000C9467000C9467000C946700C4
:100020000C9467000C9467000C9467000C946700B4
:100030000C9467000C9467000C9467000C946700A4
:100040000C9467000C9467000C9467000C94670094
:100050000C946700001F000000001F00001F10101C
:1000600010101F00001F181818181F00001F1C1C5C
:100070001C1C1F00001F1E1E1E1E1F00001F1F1F16
:100080001F1F1F0003070F1F0F070300181C1E1F51
:100090001E1C180011241FBECFE5D8E0DEBFCDBF67
:1000A00010E0A0E6B0E0E6E9F8E002C005900D92AD
:1000B000AC3BB107D9F711E0ACEBB0E001C01D9249
:1000C000A735B107E1F70E949F000C9449040C94F6
:1000D0000000CF92DF92EF92FF920F931F936C017B
:1000E000862F7901642F0E940103C6016AE070E047
:1000F0000E943604805DE4E9F0E0EE0EFF1ED701B9
:100100008C93C6016AE070E00E943604CB016AE07D
:1001100070E00E943604805DE00FF11F80838081D3
:100120000E94A602F70180810E94A60280E090E072
:100130001F910F91FF90EF90DF90CF9008952F9235
:100140003F924F925F926F927F928F929F92AF9267
:10015000BF92CF92DF92EF92FF920F931F93DF93A4
:10016000CF93CDB7DEB7C355D0400FB6F894DEBFFE
:100170000FBECDBFDE011196E0E6F0E08CE001900D
:100180000D928150E1F7DE01D596E0EAF0E08BE1D7
:1001900001900D928150E1F7DE011D96ECE6F0E052
:1001A0008CE001900D928150E1F7DE015996E8E76D
:1001B000F0E08EE001900D928150E1F7DE0197961C
:1001C000E6E8F0E08EE001900D928150E1F71ABA76
:1001D0008FEF87BB18BA0E944B0382E060E00E9459
:1001E00001037E010894E11CF11CC7016BE00E9431
:1001F000EC0282E061E00E9401038E01035F1F4F69
:10020000C8016BE00E94EC02CC24DD2488249924F0
:1002100022243324AA24BB2466247724442455248E
:100220006196EFAE61976296FFAE629763960FAFED
:10023000639764961FAF64978091BC008823E1F7B1
:10024000B09B0BC01DC00894611C711C0894411C1C
:10025000511C88E893E10197F1F7C89BF4CFC301E3
:100260000197449738F40894A11CB11C64E1662EF0
:10027000712C7EC025E6421651040CF008C157C00F
:100280000E94E40280E060E00E940103CE014996F2
:100290006DE00E94EC0280E061E00E940103CE016B
:1002A00087966DE00E94EC0280ED97E0E2E3F0E0DB
:1002B0003197F1F70197D1F70E94E40280E090E0D6
:1002C000FC01EC56FF4F30E3308301968D309105F1
:1002D000B9F78AE3809396008093990080939C00FD
:1002E00082E060E00E94010361968FAD61976296A3
:1002F0009FAD62976BE00E94EC0282E061E00E9499
:10030000010363968FAD639764969FAD64976BE02E
:100310000E94EC02CC24DD24882499242224332456
:10032000AA24BB246624772444245524A4C095E140
:1003300069167104FCF080E593EC0197F1F7809168
:10034000BE002FE0829FC001112481549F4F64E9B9
:1003500070E00E941B048091BE008F5F8093BE00FE
:100360008091BE00883010F01092BE006624772481
:100370004424552434E6A316B10409F077C0089448
:10038000C11CD11C8CE3C816D10464F4C60168E01A
:1003900070E040E050E027E030E006E010E00E942E
:1003A0006900D1C09CE3C916D10409F0CCC00894FF
:1003B000811C911C80E090E068E070E040E050E03B
:1003C00027E030E006E010E00E9469002CE382168E
:1003D000910464F4C40165E070E040E050E024E082
:1003E00030E003E010E00E946900ABC03CE38316FC
:1003F000910409F0A6C080E090E065E070E040E084
:1004000050E024E030E003E010E00E94690008942E
:10041000211C311C8CE02816310464F4C10162E017
:1004200070E040E050E021E030E000E010E00E94A9
:10043000690004C09CE02916310429F0CC24DD2495
:100440008824992480C080E090E062E070E040E081
:1004500050E021E030E000E010E00E946900CC2490
:10046000DD2488249924222433246DC024E6A21696
:10047000B1040CF0E1CEC5016BE070E040E050E06B
:100480002AE030E009E010E00E946900D5CEEE24B9
:10049000FF2480E060E00E940103C701880F991FDC
:1004A0008E0D9F1D25E330E02C0F3D1F820F931F03
:1004B00062E00E94EC02C70144E0880F991F4A9550
:1004C000E1F78E199F0981549F4F6BE00E94EC0267
:1004D00080E061E00E94010387010F5F1F4FC801A8
:1004E000880F991F800F911F25E330E02C0F3D1FCF
:1004F000820F931F62E00E94EC02C80124E0880F83
:10050000991F2A95E1F7801B910B81549F4F6BE057
:100510000E94EC02C89904C082E090E0E80EF91E47
:1005200098E0E916F10411F4EE24FF2484EC99E03C
:10053000E2E3F0E03197F1F70197D1F7B09BA9CF53
:100540009FCECC24DD24AA24BB2495CF282F207F46
:1005500022BB909A929A24EF31E0F9013197F1F79A
:1005600092989098F9013197F1F790E044E0880F64
:10057000991F4A95E1F782BB909A929AC901019717
:10058000F1F792989098C9010197F1F70895282FF3
:10059000207F22BB929A24EF31E0F9013197F1F7E5
:1005A0009298F9013197F1F790E054E0880F991F84
:1005B0005A95E1F782BB929AC9010197F1F7929897
:1005C000C9010197F1F7089581E00E94C7020895DB
:1005D00082E00E94C70208950F931F93CF93DF9389
:1005E000062F009749F0EC0110E004C089910E94A9
:1005F000A6021F5F1017D0F3DF91CF911F910F91CB
:100600000895623031F0633031F0613029F4805C5C
:1006100003C08C5E01C08C5A80680E94C702089596
:100620001F93CF93DF93EC01862F642F0E94010369
:1006300010E003C00E94A6021F5FFE01E10FF11D42
:1006400084918823B9F7DF91CF911F910895EF929C
:10065000FF920F931F93CF93DF937C01162F110FFF
:10066000110F110F1064C0E0D0E0F701EC0FFD1F77
:100670000491812F8C0F0E94C702802F0E94A60236
:100680002196C830D10589F7DF91CF911F910F9145
:10069000FF90EF9008951F93CF93DF938CE49DE13B
:1006A0000197F1F712BA12BA81B3806F81BB81B39F
:1006B000876081BB80E382BB929A24EF31E0F9012D
:1006C0003197F1F79298F9013197F1F782BB929A3D
:1006D000C9010197F1F79298C9010197F1F780E2FA
:1006E00082BB929AC9010197F1F79298C9010197CB
:1006F000F1F788E20E94C7028CE00E94C702C4E5BD
:10070000D0E060E0162F1F5FCE010E9427032896DD
:10071000612F1830B9F7DF91CF911F9108950F9392
:100720001F93082F10E004C08EE10E94C7021F5FD4
:100730001017D0F31F910F9108950F931F93082F57
:1007400010E004C088E10E94C7021F5F1017D0F3B9
:100750001F910F9108958EE00E94C70208958FE0C7
:100760000E94C70208958CE00E94C702089588E0A5
:100770000E94C70208958CE00E94C70208950F935B
:100780001F93082F10E004C080E10E94C7021F5F82
:100790001017D0F31F910F9108950F931F93082FF7
:1007A00010E004C084E10E94C7021F5F1017D0F35D
:1007B0001F910F910895DF92EF92FF920F931F9375
:1007C000CF93DF93D42E96E0899FC0011124242F6C
:1007D00030E0AC01429FC001439F900D529F900DAD
:1007E000112470E00E943604EB01CB0166E070E05A
:1007F0000E942204E82EFF2400E010E012C0C8018D
:100800000596C817D90710F085E006C0C017D107B4
:1008100010F08E2D01C080E00E94A602F3940A5FC2
:100820001F4FFD1460F3DF91CF911F910F91FF9047
:10083000EF90DF900895FB01DC0101900D92002004
:10084000E1F70895AA1BBB1B51E107C0AA1FBB1FFC
:10085000A617B70710F0A61BB70B881F991F5A954C
:10086000A9F780959095BC01CD01089597FB092EBD
:1008700007260AD077FD04D0E5DF06D000201AF461
:10088000709561957F4F0895F6F7909581959F4FEC
:060890000895F894FFCF6B
:1008960030303A30303A30303A30300068683A6DAD
:1008A6006D3A73733A6D73002020202053544F50D5
:1008B60057415443480054697368616E20313031A2
:1008C6003031330030303A30303A30303A30300060
:1008D600312E00322E00332E00342E00352E0036F7
:0C08E6002E00372E00382E00392E0000A6
:00000001FF
